:400000000010002011000000D5030000D503000010B500F0E7F9C04670B50F4C23688022D20213432360182000F060FA22680B4B134023600A4A0B4B1A60063A0A4B1A606F
:40004000002525600949092000F01CFA092000F00DFA074B1D6070BD00010B40FFFFFBFF0600008004010B4008010B40FD0600000C020B4010B572B600240FE01F486200A6
:40008000131959000B00411889881A5AC31858880004104300F098F90134E4B2012CEDD9EE221202164B1A6099231B04154A1360154A1360154A1360154A1360154A117877
:4000C00006230B43DBB213708322134B1A60134A134B1A601F22134B1A60134A134B1A608022134B1A60C0221204124B1A60D8221201114B1A60FFF78FFF10BDF40B0000FD
:400100000C00014000500F4010500F4020500F4030500F4000700F4000000440B60D40000800044000010440962418000801044000020440080204400803044010B5064CE6
:400140002378002B07D1054B002B02D0044800E000BF0123237010BD5001002000000000280B0000084B10B5002B03D00749084800E000BF07480368002B00D110BD064B58
:40018000002BFBD09847F9E70000000054010020280B0000C00000200000000070B50D00140000F009FB280000F0FAFA200000F00FFB70BD10B5002000F026FB012000F06E
:4001C0003BFB012000F02CFB0A2000F085F900F03FFB002801D0002400E0312400F040FB002800D1342400F043FB002800D1372400F046FB002800D12A24012000F004FBF7
:40020000002000F019FB012000F00AFB0A2000F063F900F01DFB002800D1322400F020FB002800D1352400F023FB002800D1382400F026FB002800D13024012000F0E4FAAA
:40024000012000F0F9FA002000F0EAFA0A2000F043F900F0FDFA002800D1332400F000FB002800D1362400F003FB002800D1392400F006FB002800D12324012000F0C4FA77
:40028000012000F0D9FA012000F0CAFA200010BDF0B5474680B484B062B600F0A5FA454800F0A4FA444B1A6802921A7902AB1A7105220021684600F025FC0027002398469D
:4002C0000025FFF777FF0400061E0ED14346002B05D1002200210020FFF760FF45E0012201210120FFF75AFF3FE00300233BDAB2162A33D89300314AD3589F460122012190
:400300000020FFF74BFF012398462EE0012200210120FFF743FF0123984626E0002201210120FFF73BFF012398461EE0012200210020FFF733FF0123984616E0002201214B
:400340000020FFF72BFF012398460EE0002200210120FFF723FF0123984606E0012201210120FFF71BFF01239846002E1CD0002D1AD16B46DC550137FFB2200000F0A0FACA
:40038000032F11D900236A46137102A9684600F0C1FB002804D10A4800F028FA002703E0084800F023FA0027142000F07DF8250087E7C046880B0000EC0B00002C0B0000E3
:4003C000A80B0000D40B000010B50A00002100F099FB10BD10B500F069FB03680C2B00D1FEE7FEE770B50F4E0F4D13E029686B68AC68002202E001C901C30432A242FAD114
:40040000E868002202E0002102C304328242FAD11035013E002EE9D100F04EFBFFF738FFFEE7C04601000000540C000010B500230AE0032B03D89A000949505800E00948FF
:400440009900094A885001332F2BF2D9FFF712FE8022D205116801230B43136010BDC04600000000D5030000000000201F2318401E3B8340014A13607047C04600E100E0C5
:4004800001BE704770B504000D001F2802D90020FFF7F6FF1034A40080239B059C4664442068256070BDC04610B5040006E0084B586800F0EDF9074B9C46644480231B023A
:4004C0009C42F4D8024B9868604300F0E1F910BDC40000200080FFFF10B5034B1B7B584300F0D6F910BDC046C4000020F0B557464E46C0B483B0040000F0D4F90190E71EDB
:400500002D2F74D83F4B1B78DBB29C4208D83E4B1B78DBB29A463D4B1B78DBB2994631E03B4B1B78DBB29C4208D83A4B1B78DBB29A46394B1B78DBB2994623E0374B1B7806
:40054000DBB29C4208D8364B1B78DBB29A46354B1B78DBB2994615E0334B1B78DBB29C4208D8324B1B78DBB29A46314B1B78DBB2994607E02F4B1B78DBB29A462E4B1B787A
:40058000DBB299462D4BDE5D2F2E09D92A2C07D919222B4B1A60052000F07AF9192503E0274B1D683F231D40B54206D9234BDA5D234B1A60052000F06BF91F4B9C4664444D
:4005C0002378DBB21F4A13601F4B52461A601F4B4A461A600520FFF77FFFB5420AD2174BDA5D174B1A60052000F052F902E00020FFF746FF019800F059F903B00CBC91465C
:400600009A46F0BDC0F1FF0FC1F1FF0FC2F1FF0FC3F1FF0FC4F1FF0FC5F1FF0FC6F1FF0FC7F1FF0FC8F1FF0FC9F1FF0FCAF1FF0FCBF1FF0FCCF1FF0FCDF1FF0F000C000054
:400640002CFF0B4028FF0B401CFF0B4020FF0B40034B1868C0231B02184000D00120704700010B4010B500F01DF9044A1368C02109020B43136000F019F910BD00010B404C
:4006800010B500F00FF908490A68084B1A408024E40122430A600A6813408022120213430B6000F003F910BD00010B40FF3FFFFF70B5050000F0F6F80400FFF7C9FF002846
:4006C00003D0FFF7DDFF012100E0002108482840084A1568084B2B40184310601368012901D1FFF7BFFF200000F0E0F870BDC0460404040010020B40FBFBFBFF10B5244B4F
:400700001B685B0715D5234B1B685B070ED5224BD969042001401F4C22688A432260DA698243DA611B69002B00D098470420FFF7BFFF174B1B685B0518D5164B1B685B056D
:4007400010D5154BD9698022D2001140114802688A430260D969114A0A40DA615B69002B00D098478020C000FFF7A2FF084B1B685B030CD5074B1B685B0304D5064B9B690E
:40078000002B00D098478020C002FFF791FF10BD10020B40D80000206C010020FFFBFFFF04490A68D2B204239A43800018401043086070470000044004490A68D2B2402355
:4007C0009A43800118401043086070470001044004490A68D2B208239A43C0001840104308607047000004407047C04670B505000078012404E000F063F8285D0134E4B270
:400800000028F8D170BDC046044A1368DBB201218B430840184310607047C04600000440044A1368DBB201218B430840184310607047C0460001044004490A68D2B2022377
:400840009A434000184010430860704700000440024B1868400801231840704704010440024B1868800801231840704704010440024B1868C00801231840704704010440DA
:40088000024B18680009012318407047040104400230800804D0C0460138FDD1C046C046C0467047EFF3108072B6704780F310887047C04600000000000000000000000069
:4008C000FEB5494652465B460EB407462E4909688A462E4A12682E48022100F05BF803002A480068C0182A4900F054F806001F3EB346234A126801219140C9430C00012510
:400900000026FFF7CFFF814651460B6823400B6058460430FFF7BCFF3800F040284090400B68234003430B605846FFF7B1FF0136072EF1D900200130012090400B682340F2
:4009400003430B6058460630FFF7A2FF4846FFF7ADFFC046C046C0460EBC894692469B46FEBDC046C046C046C046C046C046C046C046C046C046C046C046C046C046C046B2
:40098000E4000020E0000020DC000020D400002000C20100002243088B4274D303098B425FD3030A8B4244D3030B8B4228D3030C8B420DD3FF22090212BA030C8B4202D3C8
:4009C0001212090265D0030B8B4219D300E0090AC30B8B4201D3CB03C01A5241830B8B4201D38B03C01A5241430B8B4201D34B03C01A5241030B8B4201D30B03C01A524131
:400A0000C30A8B4201D3CB02C01A5241830A8B4201D38B02C01A5241430A8B4201D34B02C01A5241030A8B4201D30B02C01A5241CDD2C3098B4201D3CB01C01A5241830945
:400A40008B4201D38B01C01A524143098B4201D34B01C01A524103098B4201D30B01C01A5241C3088B4201D3CB00C01A524183088B4201D38B00C01A524143088B4201D35C
:400A80004B00C01A5241411A00D20146524110467047FFE701B5002000F006F802BDC0460029F7D076E770477047C046014B18687047C046480100200E4B70B500251E0087
:400AC0000D4CE41AA410A54204D0AB00F35898470135F8E700F0ACF8084B00251E00084CE41AA410A54204D0AB00F35898470135F8E770BD3C0C00003C0C00003C0C00006C
:400B0000440C000003008218934202D019700133FAE7704702780B78002A03D0013001319A42F7D0D01A7047000000004C0300005C0300005C0300005C0300005C03000060
:400B40005C0300005C0300002C0300005C0300005C0300005C0300005C0300005C0300003C030000FC0200000C0300001C0300002C0300003C0300004C030000FC02000087
:400B80000C0300001C0300000D0A2D2D2D204B6579706164204C61622053746172746564202D2D2D0D0A00000D0A203E3E2050415353574F524420434F525245435421204E
:400BC000414343455353204752414E5445442E0D0A0000000D0A203E3E2057524F4E472050415353574F5244210D0A00313233340000000000300F40000400400F400004CE
:400C0000030405060708090A0B0C0E0F101112131415161718191B1C1D1E1F2021222325262728292A2B2E2F3031323334354300F8B5C046F8BC08BC9E4670476501000055
:400C40002D040000F8B5C046F8BC08BC9E4670473D010000680C0000C000002090000000400000000000000000000000010000000000E02EC05D00001800000000366E0132
:400C80000404040000020440020000000700000000000000000000000000000000000000000000000000000000000000000000002E0C00000000000000000000000000009F
:400CC000000000000000000000000000000000000000000000000000000000000000000000000000000000000000000000000000E8000020000000000000000000000000EC
:400D000000000000000000000000000000000000000000000000000000000000000000000000000000000000000000000000000000000000000000000000000000000000B3
:400D40000000000000000000000000000000000000000000000000000000000000000000000000000000000000000000000000000000000000000000000000000000000073
:400D80000000000000000000000000000000000000000000000000000000000000000000000000000000000000000000000000000000000000000000000000000000000033
:400DC00000000000000000000000000000000000000000000000000000000000000000000000000000000000000000000000000000000000000000000000000000000000F3
:0200000490303A
:020000000B3BB8
:0200000490402A
:200000000000000000000000000000000000000000000000000000000000000000000000E0
:0200000490501A
:0C000000000204C81193110104CC1CCEB6
:0200000490600A
:0100000001FE
:00000001FF