:400000000010002011000000110300001103000010B500F085F9C04670B50F4C23688022D20213432360182000F0FEF922680B4B134023600A4A0B4B1A60063A0A4B1A60BC
:40004000002525600949092000F0BAF9092000F0ABF9074B1D6070BD00010B40FFFFFBFF0600008004010B4008010B40390600000C020B4010B572B600240FE01F48620030
:40008000131959000B00411889881A5AC31858880004104300F036F90134E4B2012CEDD9EE221202164B1A6099231B04154A1360154A1360154A1360154A1360154A1178D9
:4000C00006230B43DBB213708322134B1A60134A134B1A601F22134B1A60134A134B1A608022134B1A60D8221204124B1A60124A124B1A60FFF790FF10BDC046F80A00008B
:400100000C00014000500F4010500F4020500F4030500F4000700F4000000440B60D5800080004400001044096241800080104400002044008020440860D00000803044052
:4001400010B5064C2378002B07D1054B002B02D0044800E000BF0123237010BD5001002000000000940A0000084B10B5002B03D00749084800E000BF07480368002B00D1F4
:4001800010BD064B002BFBD09847F9E70000000054010020940A0000C00000200000000010B5002405E0A200034BD358012098470134022CF7DD10BD980A000070B50025A0
:4001C0001DE0104EAC000620A35998473419E3680020984700240AE0A3000A4AD3189B69984763001B19084AD31858550134032CF2DDAA00034BD358012098470135022D51
:40020000DFDD70BD980A00006C01002070B50500002412E0802323412B4203D0012000F0E7FA02E0002000F0E3FA012000F0D4FA002000F0D1FA013464B2072CEADD70BD32
:4002400070B503000C00150001209840C043C0B2FFF7DCFF002D08D00A4B1C192823E35C7F201840FFF7D2FF05E0064B1C192823E05CFFF7CBFF012000F0A2FA002000F0B0
:400280009FFA70BD980A000070B562B600F026FA184800F025FAFFF783FF002200210020FFF7CEFFFFF78AFF00251CE06B005B19114AD3181B5D002B0FD16B005B190F4AFC
:4002C000D3181B193422995C0B2906D800220020FFF7B6FF0A4800F003FA013400E00024022CE3DD0135032DF9DD322000F07AF8D8E7C046D80A00006C010020980A000069
:40030000E80A000010B50A00002100F0BBFB10BD10B500F08BFB03680C2B00D1FEE7FEE770B50F4E0F4D13E029686B68AC68002202E001C901C30432A242FAD1E8680022BE
:4003400002E0002102C304328242FAD11035013E002EE9D100F070FBFFF796FFFEE7C04601000000580B000010B500230AE0032B03D89A000949505800E009489900094AC3
:40038000885001332F2BF2D9FFF774FE8022D205116801230B43136010BDC0460000000011030000000000201F2318401E3B8340014A13607047C04600E100E001BE70475E
:4003C00070B504000D001F2802D90020FFF7F6FF1034A40080239B059C4664442068256070BDC04610B5040006E0084B586800F00BFA074B9C46644480231B029C42F4D8A8
:40040000024B9868604300F0FFF910BDC40000200080FFFF10B5034B1B7B584300F0F4F910BDC046C4000020F0B557464E46C0B483B0040000F0F2F90190E71E2D2F74D843
:400440003F4B1B78DBB29C4208D83E4B1B78DBB29A463D4B1B78DBB2994631E03B4B1B78DBB29C4208D83A4B1B78DBB29A46394B1B78DBB2994623E0374B1B78DBB29C4204
:4004800008D8364B1B78DBB29A46354B1B78DBB2994615E0334B1B78DBB29C4208D8324B1B78DBB29A46314B1B78DBB2994607E02F4B1B78DBB29A462E4B1B78DBB299463A
:4004C0002D4BDE5D2F2E09D92A2C07D919222B4B1A60052000F098F9192503E0274B1D683F231D40B54206D9234BDA5D234B1A60052000F089F91F4B9C4664442378DBB216
:400500001F4A13601F4B52461A601F4B4A461A600520FFF77FFFB5420AD2174BDA5D174B1A60052000F070F902E00020FFF746FF019800F077F903B00CBC91469A46F0BD7B
:40054000C0F1FF0FC1F1FF0FC2F1FF0FC3F1FF0FC4F1FF0FC5F1FF0FC6F1FF0FC7F1FF0FC8F1FF0FC9F1FF0FCAF1FF0FCBF1FF0FCCF1FF0FCDF1FF0F040B00002CFF0B4029
:4005800028FF0B401CFF0B4020FF0B40034B1868C0231B02184000D00120704700010B4010B500F03BF9044A1368C02109020B43136000F037F910BD00010B4010B500F092
:4005C0002DF908490A68084B1A408024E40122430A600A6813408022120213430B6000F021F910BD00010B40FF3FFFFF70B5050000F014F90400FFF7C9FF002803D0FFF798
:40060000DDFF012100E0002108482840084A1568084B2B40184310601368012901D1FFF7BFFF200000F0FEF870BDC0460404040010020B40FBFBFBFF10B5244B1B685B07D5
:4006400015D5234B1B685B070ED5224BD969042001401F4C22688A432260DA698243DA611B69002B00D098470420FFF7BFFF174B1B685B0518D5164B1B685B0510D5154BCE
:40068000D9698022D2001140114802688A430260D969114A0A40DA615B69002B00D098478020C000FFF7A2FF084B1B685B030CD5074B1B685B0304D5064B9B69002B00D019
:4006C00098478020C002FFF791FF10BD10020B40D800002078010020FFFBFFFF7047C04670B505000078012404E000F0A9F8285D0134E4B20028F8D170BDC046034A13684B
:4007000007218B43184310607047C04608000440044A1368DBB201218B430840184310607047C04600000440034A136807218B43184310607047C04608010440044A136839
:40074000DBB201218B430840184310607047C04600010440034A136838218B43C0001843106070470800044004490A68D2B202239A434000184010430860704700000440D7
:40078000024B1868400801231840704704010440024B1868800801231840704704010440024B1868C00801231840704704010440024B186800090123184070470401044074
:4007C00004490A68D2B240239A43800118401043086070470002044004490A68D2B240239A438001184010430860704700000440044A1368DBB201218B430840184310607A
:400800007047C046000304400230800804D0C0460138FDD1C046C046C0467047EFF3108072B6704780F310887047C046000000000000000000000000000000000000000037
:40084000FEB5494652465B460EB407462E4909688A462E4A12682E48022100F05BF803002A480068C0182A4900F054F806001F3EB346234A126801219140C9430C00012590
:400880000026FFF7CBFF814651460B6823400B6058460430FFF7B8FF3800F040284090400B68234003430B605846FFF7ADFF0136072EF1D900200130012090400B6823407F
:4008C00003430B6058460630FFF79EFF4846FFF7A9FFC046C046C0460EBC894692469B46FEBDC046C046C046C046C046C046C046C046C046C046C046C046C046C046C0463B
:40090000E4000020E0000020DC000020D400002000C20100002243088B4274D303098B425FD3030A8B4244D3030B8B4228D3030C8B420DD3FF22090212BA030C8B4202D348
:400940001212090265D0030B8B4219D300E0090AC30B8B4201D3CB03C01A5241830B8B4201D38B03C01A5241430B8B4201D34B03C01A5241030B8B4201D30B03C01A5241B1
:40098000C30A8B4201D3CB02C01A5241830A8B4201D38B02C01A5241430A8B4201D34B02C01A5241030A8B4201D30B02C01A5241CDD2C3098B4201D3CB01C01A52418309C6
:4009C0008B4201D38B01C01A524143098B4201D34B01C01A524103098B4201D30B01C01A5241C3088B4201D3CB00C01A524183088B4201D38B00C01A524143088B4201D3DD
:400A00004B00C01A5241411A00D20146524110467047FFE701B5002000F006F802BDC0460029F7D076E770477047C046014B18687047C046480100200E4B70B500251E0007
:400A40000D4CE41AA410A54204D0AB00F35898470135F8E700F06EF8084B00251E00084CE41AA410A54204D0AB00F35898470135F8E770BD400B0000400B0000400B000021
:400A8000480B000003008218934202D019700133FAE7704700000000FD060000550700002907000011070000690700003D0700008107000091070000A1070000B10700006F
:400AC000C0F9A4B0999282F8809088830102030405060708090A000B4C6162203420537461727465640D0A004B657920507265737365640D0A00000000300F40000400407D
:400B00000F400004030405060708090A0B0C0E0F101112131415161718191B1C1D1E1F2021222325262728292A2B2E2F3031323334354300F8B5C046F8BC08BC9E46704769
:400B40006901000069030000F8B5C046F8BC08BC9E46704741010000680B0000C0000020900000004800000000000000010000000000E02EC05D00001800000000366E0183
:400B8000040404000002044002000000070000000000000000000000000000000000000000000000000000000000000000000000320B00000000000000000000000000009D
:400BC000000000000000000000000000000000000000000000000000000000000000000000000000000000000000000000000000E8000020000000000000000000000000ED
:400C000000000000000000000000000000000000000000000000000000000000000000000000000000000000000000000000000000000000000000000000000000000000B4
:400C40000000000000000000000000000000000000000000000000000000000000000000000000000000000000000000000000000000000000000000000000000000000074
:400C80000000000000000000000000000000000000000000000000000000000000000000000000000000000000000000000000000000000000000000000000000000000034
:400CC00000000000000000000000000000000000000000000000000000000000000000000000000000000000000000000000000000000000000000000000000000000000F4
:0200000490303A
:02000000C592A7
:0200000490402A
:200000000000000000000000000000000000000000000000000000000000000000000000E0
:0200000490501A
:0C000000000204C81193110104CBD725A5
:0200000490600A
:0100000001FE
:00000001FF